:020000040800F2
:1000000000000220D9020008E9090008EB090008F5
:10001000ED090008EF090008F109000800000000E0
:10002000000000000000000000000000F3090008CC
:10003000F509000800000000F7090008F9090008A8
:1000400029030008290300082903000829030008E0
:1000500029030008290300082903000829030008D0
:1000600029030008290300082903000829030008C0
:1000700029030008290300082903000829030008B0
:1000800029030008290300082903000829030008A0
:100090002903000829030008290300082903000890
:1000A0002903000829030008290300082903000880
:1000B0002903000829030008290300082903000870
:1000C0002903000829030008290300082903000860
:1000D0002903000829030008290300082903000850
:1000E0002903000829030008000000002903000874
:1000F0002903000829030008290300082903000830
:10010000290300082903000829030008290300081F
:10011000290300082903000829030008290300080F
:1001200029030008290300082903000829030008FF
:1001300029030008290300082903000829030008EF
:1001400000000000000000000000000000000000AF
:1001500029030008290300082903000829030008CF
:1001600029030008290300082903000829030008BF
:1001700029030008290300082903000829030008AF
:10018000290300082903000829030008290300089F
:10019000290300082903000829030008290300088F
:1001A000290300082903000829030008290300087F
:1001B000290300082903000829030008290300086F
:1001C000290300082903000829030008290300085F
:1001D000290300082903000829030008290300084F
:1001E000290300082903000829030008290300083F
:1001F000290300082903000829030008290300082F
:10020000290300082903000829030008290300081E
:10021000290300082903000829030008290300080E
:100220002903000829030008290300080000000032
:100230002903000829030008000000002903000822
:1002400029030008290300082903000829030008DE
:1002500029030008290300082903000829030008CE
:1002600029030008290300082903000829030008BE
:1002700029030008290300082903000800000000E2
:1002800029030008290300082903000800000000D2
:08029000000000002903000832
:1002980010B5054C237833B9044B13B10448AFF3B8
:1002A80000800123237010BD100000200000000012
:1002B800581D000808B5034B1BB103490348AFF3A9
:1002C800008008BD0000000014000020581D000830
:1002D800DFF834D0002103E00C4B5B584350043165
:1002E8000B480C4B42189A42F6D30B4A02E0002303
:1002F80042F8043B094B9A42F9D300F07BFB01F02A
:1003080003FD00F00FF8704700000220881D000868
:1003180000000020100000201000002080000020B5
:10032800FEE70000794B5A6912F4003280B59CB0A0
:1003380011D1BFF34F8FBFF36F8FC3F85022BFF3B4
:100348004F8FBFF36F8F5A6942F400325A61BFF37F
:100358004F8FBFF36F8F6D4A536913F4803323D1E6
:10036800C2F88430BFF34F8FD2F8803043F6E07480
:10037800C3F3C900C3F34E335B0103EA0406014625
:1003880046EA81750139C2F86052F9D2203B13F16F
:10039800200FF2D1BFF34F8F536943F48033536179
:1003A800BFF34F8FBFF36F8F00F08CFB022000F07C
:1003B8006BFD00230093564BDA6A22F00102DA62E1
:1003C800DB6A03F001030093524B9A6942F44042FE
:1003D8009A619A6902F440420092009A9A699204DA
:1003E800FCD50023022201274FF480364FF0050E7A
:1003F800A0210425082409A80C9310931B93169296
:10040800189217951A931994CDE90976CDE9122215
:10041800CDE914E101F020F800B1FEE703234FF025
:100428003F0C4FF480622946CDE901C34023CDE952
:10043800030401A8CDE90533CDE9072301F03EFB0C
:1004480000B1FEE700F0D2F9044600B1FEE700F083
:10045800E5FB48F21F7240F2011309A8ADF82470B9
:100468000A94CDE90B2300F0F7FB40F201234FF08B
:10047800104109A8ADF82430274B0C96CDE90A1392
:1004880000F0EAFB284600F0D7FBBFF34F8FBFF31D
:100498006F8F1E4A536923F400335361C2F85042E8
:1004A800BFF34F8FBFF36F8FC2F88440BFF34F8FF6
:1004B800536923F480335361BFF34F8FD2F88030F0
:1004C80043F6E074C3F3C900C3F34E335B0103EA98
:1004D8000406014646EA81750139C2F87452F9D218
:1004E800203B13F1200FF2D1BFF34F8FBFF36F8F73
:1004F8004FF0E023002209491A614FF01042536877
:1005080012680B6082F308889847FEE700ED00E068
:1005180000040058004802581A0000032C0000206C
:100528007B4BD3F8D42042F480422DE9F04FC3F836
:10053800D42091B0D3F8D4200924764D002602F4B3
:100548008042754F0BA9284600924FF04008009A48
:100558004FF00A0BDA6F4FF40079DFF8C4A142F4C8
:100568008042DA67DA6F22F48042DA67D3F8E02053
:1005780042F02002C3F8E020D3F8E02002F0200285
:100588000192019AD3F8E02042F00802C3F8E02073
:10059800D3F8E02002F008020292029AD3F8E02091
:1005A80042F02002C3F8E020D3F8E02002F0200255
:1005B8000392039AD3F8E02042F02002C3F8E02027
:1005C800D3F8E02002F020020492049AD3F8E02045
:1005D80042F02002C3F8E020D3F8E02002F0200225
:1005E8000592059AD3F8E02042F04002C3F8E020D3
:1005F800D3F8E02002F040020692069AD3F8E020F1
:1006080042F08002C3F8E020D3F8E02002F0800234
:100618000792079AD3F8E02042F08002C3F8E0205E
:10062800D3F8E02002F080020892089AD3F8E0207C
:1006380042F04002C3F8E020D3F8E02002F0400284
:100648000992099AD3F8E02042F04002C3F8E0206A
:100658004FF48062D3F8E03003F040030A930A9B1A
:100668000223CDE90B230323CDE90D630F9400F09A
:100678001FFB01230BA93846CDF82C800D93CDF82C
:100688003CB000F015FB4FF400630BA923480B9313
:100698000D960F9400F00CFB04230BA950460F9401
:1006A8000B9300F005FB0BA92846CDF82C90CDF84C
:1006B8003CB000F0FDFA08230BA950460F940B93A9
:1006C80000F0F6FA80230BA928460F940B9300F04C
:1006D800EFFA0BA93846CDF82C9000F0E9FA0BA9EF
:1006E8002846CDF82C8000F0E3FA4FF480430BA99C
:1006F80038460B9300F0DCFA32460F215C2000F0FC
:1007080039FA5C2000F068FA11B0BDE8F08F00BF3C
:10071800004402580014025800180258000C0258ED
:10072800001C025800B54FF4407395B04FF040726A
:1007380011480C9305230F920222069300230B9273
:1007480006A913930093049303926A46CDE90D33E7
:10075800CDE91133102302934FF48003059340F23F
:100768000113019341F2883300F0E5FD003818BF0A
:10077800012015B05DF804FB3000002000B54FF4EF
:10078800407395B041F2883217480C93062306A9A6
:1007980006930023CDE90D330F930B931393CDE903
:1007A800113300F0CDFCE8B940F2022302224FF4E5
:1007B800800104900C48CDE900331023CDE90232C2
:1007C80005236A46CDE905134FF0407306A90F9338
:1007D80041F2883300F0AFFD003818BF012015B092
:1007E8005DF804FB0120FAE730000020F0B57A4CF0
:1007F8009DB07A4B2046236000F091FC18B101248B
:1008080020461DB0F0BDFFF78BFE03260123C4E987
:1008180001631023E3604FF0006393FAA3F3B3FA84
:1008280083F34FF440756C48013B23610023C4E90E
:100838000553E3614023236200F022FC0028DED147
:100848004FF480746627099041F288320590694612
:100858000D9006940097CDE90700CDE90B005E489E
:1008680000F06EFC0028CAD1992641F28832694608
:100878005948009600F064FC0028C0D141F2883243
:10088800694655480695009700F05AFC0028B6D1ED
:1008980041F2883269465048009600F051FC002821
:1008A800ADD135231790139041F288321B900EA9D1
:1008B80014940E93CDE91500CDE91900464800F0CF
:1008C8003FFC00289BD1FFF72DFF002897D1B723C5
:1008D800149517900E9313901B90CDE91500CDE950
:1008E8001900FFF74BFF002889D141F288320EA981
:1008F800394800F025FC002881D1FFF713FF0028B4
:100908007FF47DAF852200234FF440764FF0407589
:100918000E9202220EA93048ADF8003014961795B1
:100928001393CDE9182341F28832CDE91533CDE987
:100938001A3300F005FC00287FF461AF41F28832D9
:100948006946254800F098FC00287FF458AFFFF767
:1009580015FF044600287FF452AF812341F2883204
:100968000EA91D480E93BDF8003023F0F0031B05B7
:100978001B0D43F4004343F08003ADF8003000F052
:10098800DFFB00287FF43BAF41F28832694612480A
:1009980000F019FC00287FF432AFED236A460EA957
:1009A8000D480E934FF440631B9415934FF4405336
:1009B800149611930523CDE9164513934FF000457E
:1009C8004FF08043CDE90044CDE9195300F003FD11
:1009D800002818BF012413E73000002000500052FF
:1009E8007047FEE7FEE7FEE7FEE77047704770478F
:1009F80000F096B81A491B48D1F8883043F47003C0
:100A080010B5C1F88830184B1A6842F001021A6014
:100A180000221A611C68204018609A61DA611A6223
:100A28009A62DA621A635A639A63DA631A645A64D6
:100A3800186820F4802018601A660C4B1B681B0C81
:100A48001B04B3F1005F03D2094B0122C3F808214C
:100A5800084B43F2D2021A604FF000638B6010BD5E
:100A680000ED00E07FEDF6EA004402580010005C5B
:100A780000800051004000527047000070B50F4ED2
:100A88000546307808B9012070BD4FF47A730C4AD6
:100A9800B3FBF0F31068B0FBF3F000F0ABF80446DA
:100AA8000028F0D10F2DEED8024629464FF0FF302E
:100AB80000F060F820467560E6E700BF08000020F7
:100AC8000000002010B5032000F042F800F056FFA7
:100AD8000F49104A8B69C3F30323D35C03F01F0348
:100AE800D8408B6903F00F03D35C0B4A03F01F0354
:100AF80020FA03F31360094B18600F20FFF7BEFFBD
:100B0800044618B9FFF7B8FF204610BD0124FBE7DB
:100B180000440258701D0008040000200000002056
:100B2800034A044B11681B780B441360704700BFDD
:100B38007C00002008000020014B1868704700BFA7
:100B48007C000020014B1868000C70470010005C06
:100B580007490302CA6803F4E06322F4E06212045E
:100B6800120C134343F0BF6343F40033CB60704768
:100B780000ED00E0164B30B5DC68C4F30224C4F184
:100B88000705231D042D28BF0425062B4FF0FF332E
:100B98008CBF033C002403FA05F5002803FA04F38C
:100BA80021EA050122EA030201FA04F141EA0203FB
:100BB8004FEA0313DBB206DB00F1604000F5614049
:100BC80080F8003330BD00F00F00024A1354F9E7F3
:100BD80000ED00E014ED00E0002808DB01234209E5
:100BE80000F01F0003FA00F0014B43F822007047A1
:100BF80000E100E00138B0F1807F0BD24FF0E02334
:100C0800054AF0215861002082F8231007229861D4
:100C18001A6170470120704700ED00E0BFF35F8F55
:100C2800044B5A6A22F480325A620022C3F8942094
:100C3800704700BF00ED00E0064B40F00100C3F82C
:100C480094005A6A42F480325A62BFF34F8FBFF35E
:100C58006F8F704700ED00E04378144A10B5C2F872
:100C680098300178E9B14368C2F89C30C37A047BB4
:100C78001B0643EA04730B43817A43EAC143417B71
:100C880043EA8143817B43EA4143C17B43EA014311
:100C9800417A43EA0123017A43EA4103C2F8A030CA
:100CA80010BDC2F89C10C2F8A010F9E700ED00E0F2
:100CB8002DE9F74F0023DFF8CC914FF0B0440A68D4
:100CC80032FA03F502D103B0BDE8F08F4FF0010E00
:100CD8000EFA03FE1EEA020200F0BD804E684FEADB
:100CE80043084FF0030C06F003050CFA08FC6F1ECE
:100CF8006FEA0C0C012F34D8876807EA0C0ACF6812
:100D080007FA08F747EA0A078760476827EA0E0ED6
:100D1800C6F300179F4047EA0E074760C768022DD1
:100D280007EA0C0E8F6807FA08F747EA0E07C7604C
:100D380019D14FEAD30A03F0070B4FF00F0E00EB5F
:100D48008A0A4FEA8B0BDAF820700EFA0BFE27EAB4
:100D58000E0E0F6907FA0BF747EA0E07CAF820705C
:100D680001E0032DDAD1076805FA08F516F4403FCB
:100D780007EA0C0747EA050707606CD0D9F8F45072
:100D880023F0030703F0030C4FF00F0E45F00205A4
:100D980007F1B0474FEA8C0CC9F8F45007F58067A3
:100DA800D9F8F45005F002050195019D0EFA0CF5ED
:100DB800D7F8088028EA050E314DA8424DD005F530
:100DC8008065A8424BD005F58065A84249D005F555
:100DD8008065A84247D005F58065A84245D005F54D
:100DE8008065A84243D005F58065A84241D005F545
:100DF8008065A8423FD005F58065A8423DD005F53D
:100E08008065A8420CBF09250A2505FA0CF516F4D9
:100E1800801F45EA0E05BD606FEA020725680CBF12
:100E28003D40154316F4001F256065680CBF3D4022
:100E3800154316F4003F6560D4F884500CBF3D405C
:100E48001543F603C4F88450D4F8805054BF3D408D
:100E58001543C4F88050013331E70025D5E7012553
:100E6800D3E70225D1E70325CFE70425CDE70525FC
:100E7800CBE70625C9E70725C7E70825C5E700BF6B
:100E8800000002580044025838B5104CE36813F0CB
:100E9800040FE36805D103F00703181A18BF0120EF
:100EA80038BD23F007031843E060FFF745FE054609
:100EB80063689B0401D50020F2E7FFF73DFE401B65
:100EC800B0F57A7FF4D90120EAE700BF004802585C
:100ED8002DE9F0474E6A36B1B2F1406F03D08B6A04
:100EE8000468013B2361D1F81890D1E90775B9F17D
:100EF800000F4FD04B6946EA09090068D1F800A0F5
:100F08004FEA834CD1F834E049EA0209D1E90B48A9
:100F180035B38B6849EA05050E69C3619FB14AEA92
:100F280007032343CC6843EA080343EA0E03334329
:100F3800234343EA0C032B43B2F1406F43610DD0C6
:100F48004B6883610AE04AEA040343EA080343EA78
:100F58000E03334343EA0C032B434361BDE8F08798
:100F68006FB14AEA07032343CC6843EA080343EA1C
:100F78000E03234343EA0C0343EA0903DCE74AEA86
:100F8800040343EA080343EA0E0343EA0C0343EA73
:100F98000903E2E765B304688B680869E36146EA18
:100FA80005034E6943EA0205D1F834C0B604D1E915
:100FB8000B83A7B13843B2F1406F40EA080043EA17
:100FC8000003C86843EA0C0343EA000343EA060344
:100FD80043EA05036361C1D04B68A361BEE740EAF9
:100FE8000800034343EA0C0333432B436361B5E72B
:100FF8007FB146EA0703CC6A0068134323430C6BAE
:1010080023434C6B2343CC6823434C6943EA844312
:1010180092E7002EA2D0CB6A006833430E6B1A43C6
:101028004B6932434E6B324342EA8342426195E751
:101038002DE9F041DDF8188004460E4615461F4696
:1010480022689368334214BF01230023AB4201D1C5
:10105800002012E0B8F1FF3FF3D0FFF76DFDC01B91
:10106800404502D8B8F1000FEAD10423012084F8E2
:101078004130636C43F001036364BDE8F08170475D
:1010880030B5044685B0FFF757FD0346002C40D025
:1010980094F841203AB903902046FFF7F0FF41F257
:1010A8008832039BA2642068A1680268013922F48F
:1010B800706242EA0122202102602046A26C00925E
:1010C8000022FFF7B5FF10BB2268E569E3681168E5
:1010D8002B43256A21F07F412B43656821F0D0011D
:1010E80043EA05630B4313605568D4E905310B43A4
:1010F800216943EA0143084929400B4353601368B7
:1011080043F0010313600123606484F8413005B0A3
:1011180030BD0120FBE700BFFEF8E0FF704710B5C7
:10112800044658B10268136823F001031360FFF7FF
:10113800F5FF0020606484F8410010BD0120FCE741
:101148002DE9F043044685B017468946FFF7F4FCBD
:1011580094F840200346012A33D00122022684F85D
:10116800402094F84120012A5FFA82F827D1002212
:101178000390202120466264009784F84160FFF7BD
:1011880057FF0546A0B9024649462046FFF7A0FE8C
:10119800D9F82420039B4AB9424631462046009795
:1011A800FFF746FF054618B92368DE6084F84180DA
:1011B800002384F84030284605B0BDE8F083354662
:1011C800F6E70225F7E7F0B5044685B016460F4660
:1011D800FFF7B2FC94F8402003462568012A49D05D
:1011E800012284F8402094F84120012AD0B23FD14E
:1011F80000226264002F36D0122284F841202A6926
:101208000132E2622A6967620132A2626A6922F0E7
:1012180040626A61E26A8AB9012202212046009688
:10122800FFF706FF10B923680222DA60012384F869
:101238004130002384F8403005B0F0BD012204217C
:10124800204600960393FFF7F3FE0028EED1626A6A
:10125800039B127885F82020626A01326262E26A92
:10126800013AE262D6E7636C43F008036364E0E79F
:101278000220DEE70220DFE7F0B5044685B0164617
:101288000F46FFF759FC25680346D5F818C094F8AF
:101298004020012A4DD0012284F8402094F84120B2
:1012A800012AD0B243D100226264002F3AD0222210
:1012B80084F841202A690132A2632A69276301322E
:1012C8006263696921F0406141F080616961C5F834
:1012D80018C0A26B8AB90122022120460096FFF7A6
:1012E800A7FE10B923680222DA60012384F841308E
:1012F800002384F8403005B0F0BD012206212046C5
:1013080000960393FFF794FE0028EED195F820107D
:10131800226B039B1170226B01322263A26B013A8C
:10132800A263D6E7636C43F008036364E0E7022036
:10133800DEE70220DFE72DE9FF41044615461E4699
:101348008846FFF7F9FB94F840200346012A40D06D
:10135800012284F8402094F84120012AD7B236D1DE
:1013680042210022039020466264009684F84110CE
:101378002021FFF75DFE20BB21682A6828698A6260
:101388006A684A62AA68CA620A6822F4400202438A
:10139800204642F480020A604146EA68C8F82820DC
:1013A8004FF00062FFF794FD039B3A460821204660
:1013B8000096FFF73DFE20B923680822DA6084F81A
:1013C8004170002384F8403004B0BDE8F081022069
:1013D800F7E70220F8E7F7B5044616460F46FFF789
:1013E800ABFB94F840200346012A33D0012284F84D
:1013F800402094F84120012A2AD100228221204647
:10140800626484F84110A16C00912021FFF710FE5E
:101418000546B8B9236872681868082A20F00800D9
:1014280040EA0200186007D132681A631022DA60B5
:101438001A6842F480121A604FF04062394620461A
:10144800FFF746FD002384F84030284603B0F0BD7E
:101458000225F7E70225F8E7F8B5044608B90120A0
:101468008BE00368DF075ED423689E0700F1AF8036
:101478002368DA0627D59E4B1A69996A02F0380262
:10148800082A07D0182A40F0078101F00302012A30
:1014980040F002811B68DB0502D5E369802BDED1B1
:1014A800FFF750FB41F20303216A9842904B00F288
:1014B800EC805A68202922F0F8420CBF42F08042A2
:1014C80042EA81625A602368190700F1278123687C
:1014D8009A0600F1488123685D071ED5854D2B6863
:1014E80043F480732B60FFF727FB06462B68DA0569
:1014F80040F15E81A3687E4D012B40F060812B6F27
:1015080043F001032B6741F28837FFF715FB784E4C
:101518000546336F9B0740F17881606A002840F0E8
:101528007B81002029E0724B1A69996A02F038021F
:10153800102A05D0182A0AD101F00302022A06D17E
:101548001B689D0390D56368002B8DD187E762687F
:10155800B2F5803F12D11A6842F480321A60FFF760
:10156800EBFA634E0546336898033FF57DAFFFF706
:10157800E3FA401B6428F6D90320F8BD5C4D2B68BC
:101588009AB923F480332B602B6823F480232B60D3
:10159800FFF7D2FA06462B6899037FF565AFFFF788
:1015A800CBFA801B6428F6D9E6E7B2F5A02F07D15D
:1015B80043F480232B602B6843F480332B60CEE701
:1015C80023F480332B602B6823F48023F6E7484B01
:1015D800E1681A69986A12F0380203D0182A2BD1E8
:1015E800820729D11B685B0702D500293FF437AF72
:1015F8003F4D2A6822F019020A432A60FFF79CFA35
:1016080006462B685F0711D5FFF79CFA41F20303E2
:10161800226998426B6822D823F47C33402A0CBF95
:1016280043F4003343EA02336B6021E7FFF784FA9F
:10163800801B0228E5D99FE71A68A9B122F0190290
:101648002B4D0A431A60FFF777FA06462B685807AE
:10165800DAD4FFF771FA801B0228F7D98CE723F058
:10166800FE4343EA0263DFE722F00102204E1A60DC
:10167800FFF762FA0546336859077FF5F9AEFFF7B9
:101688005BFA401B0228F6D976E7DA6822F07C522A
:1016980042EA0162DA6016E7E2696AB31A68144D31
:1016A80042F080021A60FFF747FA06462B68DF050A
:1016B80011D5FFF747FA41F20303226A984210D87E
:1016C8006B68202A23F0F8430CBF43F0804343EAB9
:1016D80082636B60F7E6FFF72FFA801B0228E5D9D3
:1016E8004AE7EB6823F07C5343EA0263EB60EAE6DF
:1016F80000440258004802581A689F4E22F080029F
:101708001A60FFF719FA05463368D8057FF5DBAE8E
:10171800FFF712FA401B0228F6D92DE76369964DA8
:1017280083B16B6F43F001036B67FFF705FA064659
:101738006B6F9B073FF5CBAEFFF7FEF9801B0228C6
:10174800F6D919E76B6F23F001036B67FFF7F4F91C
:1017580006466B6F9F077FF5BAAEFFF7EDF9801B62
:101768000228F6D908E7A369834D83B12B6843F4AF
:1017780080532B60FFF7E0F906462B6898043FF585
:10178800AAAEFFF7D9F9801B0228F6D9F4E62B6830
:1017980023F480532B60FFF7CFF906462B68990492
:1017A8007FF599AEFFF7C8F9801B0228F6D9E3E662
:1017B800FFF7C2F9801B64287FF698AEDCE6B3B960
:1017C8002B6F41F2883723F001032B672B6F23F02F
:1017D80004032B67FFF7B0F906462B6F98077FF5D0
:1017E8009CAEFFF7A9F9801BB842F6D9C4E6052BD1
:1017F8002B6F03D143F004032B6780E623F001032A
:101808002B672B6F23F004037CE6FFF795F9401B49
:10181800B8427FF67EAEAFE6574D2B6903F038032A
:10182800182B7AD02B68022823F080732B6067D19D
:10183800FFF782F906462B6899015BD4AB6AA26A66
:1018480023F47C7323F003031343E26A43EA02138D
:10185800AB62636BA26B013B013A5B0212049BB261
:1018680002F4FE021343226B013AC2F30802134347
:10187800E26B013A120602F0FE4213432B63EB6A55
:1018880023F00103EB626B6BA26C23F47F4323F01C
:10189800F80343EAC2036B63EB6A226C23F00C0380
:1018A8001343EB62EB6A626C23F002031343EB62AF
:1018B800EB6A43F48033EB62EB6A43F40033EB6288
:1018C800EB6A43F48023EB62EB6A43F00103EB62BB
:1018D8002B6843F080732B60FFF72EF9264D0446E2
:1018E8002B689A013FF51DAEFFF726F9001B022869
:1018F800F6D941E6FFF720F9801B02289BD93BE681
:10190800FFF71AF904462B689B017FF50AAEFFF72B
:1019180013F9001B0228F6D92EE60128AA6A2B6BB8
:101928003FF42BAE02F00301A06A81427FF497AD29
:10193800C2F30512E16A8A427FF491AD226BC3F3C8
:101948000801013A91427FF48AAD626BC3F34621E4
:10195800013A91427FF483ADA26BC3F30641013A89
:1019680091427FF47CADE06BC3F306630138181A2B
:1019780018BF012001E600BF00440258484B1A690D
:1019880002F03802102A30B500F08680182A0CD0F0
:10199800002A40F083801A68424812F0200F03D0D2
:1019A8001B68C3F3C103D84030BD996A9D6ADC6ADD
:1019B80015F47C7FC5F305105A6BF5D0C2F3CC0241
:1019C80004F0010407EE900A01F003016243B7EE48
:1019D800006AF8EEE76A012907EE902AFAEEE97A3A
:1019E8004CD002293CD0002948D11A68920627D544
:1019F80019682C4AC1F3C1011B6BCA40C3F3080321
:101A080007EE102AF8EEC75A85EEA67A06EE903A47
:101A1800F8EEE66A76EEA77A77EE867A204B67EEDE
:101A2800877A1B6BC3F34623013307EE103AF8EEAF
:101A3800C76A87EEA67AFCEEC77A17EE900AB3E774
:101A48001B6BC3F3080307EE103AB8EEC77A77EEBC
:101A5800277A77EE867A9FED146A86EE267ADDE796
:101A68001B6BC3F3080307EE103AB8EEC77A77EE9C
:101A7800277A77EE867A9FED0D6AEEE71B6BC3F344
:101A8800080307EE103AB8EEC77A77EE277A77EEB2
:101A9800867A9FED076AE0E7064885E7064883E708
:101AA800004402580090D0030024744C20BCBE4B64
:101AB8000024744A40787D0100093D002DE9F04179
:101AC8000D46044610B90120BDE8F081884A136824
:101AD80003F00F038B42C0F0938023685F0700F187
:101AE8009B801E070BD583496669C86900F07000A2
:101AF800864204D9CA6922F070023243CA61D80604
:101B08000BD57C49A669C86900F4E060864204D90F
:101B1800CA6922F4E0623243CA6199060BD5754955
:101B2800E669086A00F07000864204D90A6A22F061
:101B3800700232430A629A070BD56E49E6688869D3
:101B480000F00F00864204D98A6922F00F0232435E
:101B58008A61DF076ED423689E0700F1A18064497B
:101B68000A6802F00F02AA4200F2A880580700F1A2
:101B7800B18019070BD55F496569C86900F0700025
:101B8800854204D2CA6922F070022A43CA61DA0681
:101B98000BD55849A569C86900F4E060854204D2AC
:101BA800CA6922F4E0622A43CA619B060BD5514AEE
:101BB800E069116A01F07001884204D2136A23F0C7
:101BC800700303431362FFF7D9FE4A494A4A8B69F7
:101BD800C3F30323D35C03F01F03D8408B6903F0DE
:101BE8000F03D35C454A03F01F0320FA03F3136085
:101BF800434B1860434BBDE8F0411868FEF73EBF01
:101C0800136823F00F030B431360136803F00F03EB
:101C18008B427FF458AF60E736492669886900F03F
:101C2800700086427FF65DAF8A6922F07002324307
:101C38008A6156E72F4BA1689A6922F470620A43B9
:101C48009A6162681B68022A1DD113F4003F3FF4B1
:101C58003AAF284E41F28838336923F0070313431B
:101C68003361FEF769FF07463369626803F038039A
:101C7800B3EBC20F3FF46FAFFEF75EFFC01B4045EA
:101C8800F2D9032020E7032A02D113F0007FDEE710
:101C9800012A02D113F4807FD9E713F0040FD6E7A5
:101CA8001449E668886900F00F008642BFF457AF10
:101CB8008A6922F00F0232438A6150E70A6822F0EB
:101CC8000F022A430A600A6802F00F02AA427FF450
:101CD800FAAE4BE707492569886900F0700085422C
:101CE800BFF447AF8A6922F070022A438A6140E74D
:101CF8000020005200440258701D00080400002013
:101D0800000000200C00002070B50D4D0D4C641B28
:101D1800A4100026A64209D10B4D0C4C00F018F86F
:101D2800641BA4100026A64205D170BD55F8043BDB
:101D380098470136EEE755F8043B98470136F2E735
:101D4800801D0008801D0008801D0008841D0008F3
:101D5800F8B500BFF8BC08BC9E467047F8B500BF90
:081D6800F8BC08BC9E46704760
:101D70000000000001020304010203040607080931
:041D8000BD02000898
:041D840099020008B8
:101D88000090D0030090D003010000001000000074
:04000005080002D914
:00000001FF
